:0400000084EF0EF08B
:1000080000C01EF001C01DF002C01CF003C01BF0B0
:1000180004C01AF005C019F008C018F009C017F09C
:100028000AC016F00BC015F0E1CF27F0E2CF28F098
:10003800E9CF25F0EACF26F0F3CF23F0F4CF24F070
:10004800F5CF22F0F8CF1FF0F7CF20F0F6CF21F050
:10005800E4EC0BF022C0F5FF1FC0F8FF20C0F7FF4B
:1000680021C0F6FF23C0F3FF24C0F4FF1EC000F038
:100078001DC001F01CC002F01BC003F01AC004F040
:1000880019C005F018C008F017C009F016C00AF02A
:1000980015C00BF025C0E9FF26C0EAFF27C0E1FF25
:0600A80028C0E2FF110078
:1000AE001E0E716E100E00016B6F040E6C6F6BC026
:1000BE00E1FF6CC0E2FFE69E6BC0E1FF6CC0E2FFA9
:1000CE00E69C040E6B25E16E000E6C21E26EE68C52
:1000DE00180E7F6F040E806F7FC0E1FF80C0E2FFBD
:1000EE00E69E7FC0E1FF80C0E2FFE69C040E7F2506
:1000FE00E16E000E8021E26EE68C020E6B25E16E43
:10010E00000E6C21E26E5EC0E6FF5FC0E6FF010EE0
:10011E006B25E16E000E6C21E26E400EE66E6BC03A
:10012E00E9FF6CC0EAFFEECF00F06BC0E1FF6CC0E0
:10013E00E2FF400E0014E66E6BC0E9FF6CC0EAFFF2
:10014E00EECF00F0880E00126BC0E1FF6CC0E2FF34
:10015E0000C0E6FF6BC036F06CC037F0040E6B19B2
:08016E00006E00C06BF01200EE
:100176000B6A0A6A096A00500402F4CF09F0F3CF49
:1001860008F001500502F4CF0BF0F3CF0AF000504F
:100196000502F3500926F4500A22E86A0B220150A0
:1001A6000402F3500926F4500A22E86A0B2208C01A
:1001B60000F009C001F00AC002F00BC003F0120003
:1001C6000401286B296B42D0518E28813850010AD0
:1001D600D8B4288350D0518E4ED0518E24BF16D01D
:1001E60024C403F00F0E031603C000F0000E016EC8
:1001F600003600900136690E0024E96E000E0120DB
:10020600EA6EEECF04F0EECF05F015D024C403F06D
:100216000F0E031603C000F0000E016E00360090AC
:1002260001367D0E0024E96E000E0120EA6EEECF47
:1002360004F0EECF05F004C0E9FF05C0EAFFEECFFB
:1002460001F001A402D0010E286F15D020C401F0E0
:100256001F0E01160150000AB7E020C401F01F0E60
:1002660001160150010AB7E020C401F01F0E011665
:100276000150020AB2E051AE07D0280E4E6E040EAF
:0A0286004F6E5180020E526E1200FE
:1002900004012251010A0FE120C401F01F0E0116D2
:1002A0000150000A08E1518E2151030A03E1010EB9
:1002B000386E01D0386A2251000AD8A48BD020C4ED
:1002C00001F01F0E01160150020AD8A483D024C4E5
:1002D00001F00F0E01160150000AD8B47BD0518EE8
:1002E00024BF16D024C403F00F0E031603C000F081
:1002F000000E016E003600900136690E0024E96E92
:10030000000E0120EA6EEECF04F0EECF05F015D01E
:1003100024C403F00F0E031603C000F0000E016E9C
:100320000036009001367D0E0024E96E000E01209B
:10033000EA6EEECF04F0EECF05F02151030A07E19B
:1003400004C0E1FF05C0E2FF840EE66E43D024C482
:1003500000F00F0E0016700E026E0F0E036E0050AE
:100360000226D8B0032A02C0E9FF03C0EAFFFE0E4E
:10037000EE14006EEECF01F0FF0E011602C0E1FF99
:1003800003C0E2FF00C0E6FF01C0E6FF24AF11D0CA
:1003900004C0E1FF05C0E2FFE66A040E0418006E27
:1003A00000C004F004C0E1FF05C0E2FF400EE66EAD
:1003B00011D004C0E1FF05C0E2FF880EE66E040E16
:1003C0000418006E00C004F004C0E1FF05C0E2FFA5
:0603D000C80EE66E1200EB
:1003D600518E716A4D6A22C455F05550000A03E1E8
:0E03E600100E546E03D0200E546E5EDE120018
:1003F40004012051800AD8A471D0C00E516E64D07B
:10040400B80E006E1E0E016E000E026E00C04EF09D
:1004140001C04FF002C050F0120E526E000E536E27
:100424005DD0030E006E000E016E22C404F0000EB7
:10043400056E9FDE410E0024E96E000E0120EA6E77
:10044400EECF4EF0EECF4FF0EECF50F0020E4E2432
:10045400F66E000E4F20F76E000E5020F86E090065
:10046400F5CF00F00900F5CF01F000C052F001C053
:1004740053F034D022512F5C23E3030E006E000EA0
:10048400016E22C404F0000E056E73DE440E0024D7
:10049400E96E000E0120EA6EEECF4EF0EECF4FF083
:1004A400EECF50F04EC0F6FF4FC0F7FF50C0F8FF3C
:1004B4000900F5CF00F000C052F0000E536E01D0D9
:1004C400516A0CD0516A0AD02351010A99E0235190
:0E04D400020AA7E02351030ACDE0F4D712007C
:1004E20020C401F01F0E01160150010A01E08DD057
:1004F20004012451000A01E088D02151060A3FE19B
:1005020034D05550010A17E1570E006E1E0E016ECF
:10051200000E026E120E0026000E0122022200C000
:100522004EF001C04FF002C050F0090E526E000EA4
:10053200536EC00E516E23D05550010A12E10A0EBD
:10054200006E1E0E016E000E026E00C04EF001C063
:100552004FF002C050F04D0E526E000E536EC00EA0
:10056200516E0DD0800E516E0AD004012351210A22
:10057200C8E02351220AE0E02351230AF3E020C419
:1005820001F0600E0116050E006E005004E001320B
:10059200019EFF0FFBD70150010A01E036D022D0A5
:1005A20034D033D0960E4E6E000E4F6E010E526E48
:1005B200000E536EC10E516E28D0800E516E23C4B0
:1005C20096F023D0AE0E4E6E000E4F6E010E526E9E
:1005D200000E536E810E516E18D0800E516E22C4E1
:1005E200AEF013D004012151010ADAE02151090AC7
:1005F200D8E02151020AD6E021510A0ADEE0215157
:0C060200030AE0E021510B0AE8E01200BE
:10060E00000E535C02E1080E525C10E252C003F081
:10061E0053C004F02E50000A03E1010E2E6E05D0D9
:10062E002E50010A02E1020E2E6E04D0080E036E49
:10063E00000E046E7DC0E1FF7EC0E2FFE6927DC03B
:10064E00E1FF7EC0E2FFE6907DC0E9FF7EC0EAFFDB
:10065E00EECF00F07DC0E1FF7EC0E2FF045000103F
:10066E00E66E010E00017D25E16E000E7E21E26E2A
:10067E0003C0E6FF0350525C006E04505358016EE7
:10068E0000C052F001C053F0280E946F040E956F07
:10069E0051B02FD0035004102BE04EC0F6FF4FC0C8
:1006AE00F7FF50C0F8FF0900F5CF00F094C0E1FF4E
:1006BE0095C0E2FF00C0E6FF944B952B010E4E2431
:1006CE00006E000E4F20016E000E5020026E00C014
:1006DE004EF001C04FF002C050F0010E035C006EF0
:1006EE00000E0458016E00C003F001C004F0D2D712
:1006FE0024D00350041021E04EC0E9FF4FC0EAFFA2
:10070E0094C0E1FF95C0E2FFEECFE6FF944B952B30
:10071E00010E4E24006E000E4F20016E00C04EF0F2
:10072E0001C04FF0010E035C006E000E0458016E06
:0C073E0000C003F001C004F0DCD7120082
:0E074A00160E6F6E9F0E6B6E3B0E696E1200E8
:0A07580000018B5301E0C1DE120026
:100762006D9851BE4AD00001A7AF28D0020E316E5B
:10077200010E7D25E16E000E7E21E26EE66A7DC0ED
:10078200E1FF7EC0E2FFC80EE66E010E3F24E16E7D
:10079200000E4020E26E080EE66E020E3F24E16E6D
:1007A200000E4020E26E280EE66E040EE66E3FC09A
:1007B200E1FF40C0E2FFC80EE66E1ED0010E3F24EC
:1007C200E16E000E4020E26E080EE66E020E3F243D
:1007D200E16E000E4020E26E200EE66E040EE66E22
:1007E2003FC0E1FF40C0E2FF8C0EE66E7DC0E1FF3C
:1007F2007EC0E2FF840EE66E80D00001A7BF7DD0EE
:10080200040120AF52D05350275D02E15250265DC1
:1008120004E226C452F027C453F0F8DE010E316E12
:10082200010E3F24E16E000E4020E26E080EE66EDD
:10083200020E3F24E16E000E4020E26E200EE66EB4
:10084200040EE66E3FC0E1FF40C0E2FF800EE66E9E
:10085200306A010E3D24E16E000E3E20E26E080E6B
:10086200E66E020E3D24E16E000E3E20E26E200E88
:10087200E66E040EE66E3DC0E1FF3EC0E2FF840E6E
:10088200E66E010E306E020E00017D25E16E000E55
:100892007E21E26E280EE66E040EE66E7DC0E1FF5A
:1008A2007EC0E2FFC80EE66E28D00001020E316E55
:1008B200010E7D25E16E000E7E21E26EE66A7DC0AC
:1008C200E1FF7EC0E2FFC80EE66E010E3F24E16E3C
:1008D200000E4020E26E080EE66E020E3F24E16E2C
:1008E200000E4020E26E280EE66E040EE66E3FC059
:0C08F200E1FF40C0E2FFC80EE66E1200FD
:1008FE0020C401F0600E0116050E006E005004E0DB
:10090E000132019EFF0FFBD70150000A01E058D0C3
:10091E0034D0518E080E546E53D065DD51D054DD57
:10092E004FD0550E4E6E000E4F6E5180010E526E10
:10093E00518E46D041DC44D0A4DC42D04D0E006E28
:10094E00000E016E24510026D8B0012A00C04EF0D0
:10095E0001C04FF05180010E526E518E31D0518E2A
:10096E004D0EE16E000EE26E2451E126D8B0E22A61
:10097E0022C4E6FF25D024D023D004012151050A3C
:10098E00C8E02151060AC9E02151090AC8E02151E7
:10099E00080AC7E02151000ACDE02151010ACCE03E
:1009AE002151030AC9E021510A0AC8E021510B0A5C
:1009BE00D6E02151070ADFE021510C0ADDE0DCD739
:0209CE00120015
:1009D000010E3D24E96E000E3E20EA6EEECF00F0DF
:1009E00000C002F0000E0001A95D02E10250A85D06
:1009F00003E2A8C002F00AD00250A85D006E000E0B
:100A0000A959016E00C0A8F001C0A9F0036A025004
:100A1000035C1CE2280EE96E040EEA6E0350E92620
:100A2000D8B0EA2AEECF00F0A5C0E1FFA6C0E2FFF1
:100A300000C0E6FF010EA525006E000EA621016E86
:100A400000C0A5F001C0A6F0032AE1D7000E006E99
:100A5000A951005C02E1A851000828E2010E3F24E0
:100A6000E16E000E4020E26E080EE66E020E3F249C
:100A7000E16E000E4020E26E280EE66E040EE66E79
:100A80003DC0E9FF3EC0EAFFEECF00F000BC07D05A
:100A90003FC0E1FF40C0E2FFC80EE66E06D03FC097
:100AA000E1FF40C0E2FF880EE66E19D0010E3F2440
:100AB000E16E000E4020E26E080EE66E020E3F244C
:100AC000E16E000E4020E26E200EE66E040EE66E31
:100AD0003FC0E1FF40C0E2FF840EE66EA79F120018
:100AE000570E416E1E0E426E000E436ECF0E446EC8
:100AF0001E0E456E000E466EA00E476E1E0E486E10
:100B0000000E496E800E4A6E1E0E4B6E000E4C6E2D
:020B10001200D1
:100B1200316A7DC0E1FF7EC0E2FFE66A040E000199
:100B22007D19E16E7EC0E2FF000EE21AE66AA7AF0F
:060B320001D0A79F120094
:100B3800040E00017D19006E00C07DF05450080AB3
:100B48000AE122C46EFF6E50000803E2100E546ED4
:100B580002D0040E546E3150010A3BE1020E7D258D
:100B6800E16E000E7E21E26E280EE66E040EE66E41
:100B78004ADD2E50020A07E17DC0E1FF7EC0E2FF98
:100B8800840EE66E25D0040E00017D19006E00C0AB
:100B98007DF07DC0E9FF7EC0EAFFEECF00F000BC2B
:100BA8000CD0040E7D19006E00C07DF07DC0E1FF01
:100BB8007EC0E2FFC80EE66E0BD0040E7D19006EF3
:100BC80000C07DF07DC0E1FF7EC0E2FF880EE66ECA
:060BD80001D09BDF1200BA
:040BDE00A19A1200C6
:100BE20070A01CD03DC0E9FF3EC0EAFFEECF01F08D
:100BF2000150800A12E17DC0E9FF7EC0EAFFEECF1C
:100C020001F0000E000A02E1840E011806E13DC067
:100C1200E1FF3EC0E2FF8C0EE66E7090DF0E6816BA
:020C22001200BE
:100C24006D92699468A403D0FB0E6816FBD712007A
:0E0C3400ACB202D00000FCD7C1C0ADFF120070
:100C42003150020A02E1C3DE1ED062DF3050000AD8
:100C520019E1010E3F24E16E000E4020E26E080E03
:100C6200E66E020E3F24E16E000E4020E26E200E80
:100C7200E66E040EE66E3FC0E1FF40C0E2FF8C0E5E
:080C8200E66E01D0306A120099
:100C8A002ADF366A376A0001896B8A6B6A6A686A80
:100C9A0057DD6D8C6E6A716A6D9C8C6B8D6B000E64
:100CAA008D5D02E1080E8C5D17E28CC000F08DC0EC
:100CBA0001F0003600900136003600900136000E31
:100CCA000024E16E040E0120E26EE66AE66AE66A34
:100CDA00E66A8C4B8D2BE3D7160E706E68A603D08E
:100CEA00F70E6816FBD7516AA76BA86BA96B6D98AC
:0E0CFA00080E7D6F040E7E6F556A546A12005C
:0A0D08006984EF0E68166D82120078
:100D12007DC0E9FF7EC0EAFFEECF00F000AE05D055
:100D22007DC0E1FF7EC0E2FFE66A2E6A316A526A46
:0C0D3200536A516AE3DD0FDD13DD12008F
:100D3E000001BC51000A12E0BBC000F0000E016EB3
:100D4E000036009001367D0E0024E96E000E012063
:100D5E00EA6EEECF04F0EECF05F011D0BBC000F07E
:100D6E00000E016E003600900136690E0024E96E09
:100D7E00000E0120EA6EEECF04F0EECF05F0020E6B
:100D8E000424E16E000E0520E26EBDC0E6FFBEC07B
:100D9E00E6FF010E0424E16E000E0520E26EBFC0D8
:100DAE00E6FF04C0E9FF05C0EAFFEECF00F004C085
:100DBE00E1FF05C0E2FF400E0014E66E04C0E9FF3D
:100DCE0005C0EAFFEECF00F0880E001204C0E1FF6E
:100DDE0005C0E2FF00C0E6FFBC51000A1BE0BBC02D
:100DEE0000F0000E016E0036009001367D0E0024DC
:100DFE00026E000E0120036E02C0E9FF03C0EAFF7F
:100E0E00040EEE18006E02C0E1FF03C0E2FF00C048
:100E1E00E6FF1AD0BBC000F0000E016E0036009047
:100E2E000136690E0024026E000E0120036E02C010
:100E3E00E9FF03C0EAFF040EEE18006E02C0E1FFE8
:100E4E0003C0E2FF00C0E6FF04C000F005C001F0E1
:020E5E00120080
:100E60000134083609360450085E0550D8A0053C08
:100E7000095E003601360F0E0C6E01340836093655
:100E8000045000A006D0085E0550D8A0053C095EBD
:100E900005D008260550D8B0053C09260036013695
:100EA0000C2EEBD700B006D0045008260550D8B061
:080EB000053C092600001200B8
:100EB8000001BE6BBF6BC06B020EBB25F66E000E49
:100EC800BC21F76E000EBD21F86E0900F5CF05F0C4
:100ED800030EBB25F66E000EBC21F76E000EBD2179
:100EE800F86E0900F5CF00F000C003F0000E046EA4
:100EF80003C001F0006A05500024066E000E0120B0
:100F0800076EBBC008F0BCC009F0BDC00AF0010EF6
:100F18000824F66E000E0920F76E000E0A20F86EFF
:100F28000900F5CF01F00150020A1BE1060E082462
:100F3800F66E000E0920F76E000E0A20F86E090002
:100F4800F5CF01F00150BE5D0CE2060E0824F66EE6
:100F5800000E0920F76E000E0A20F86E0900F5CF82
:100F6800BEF0010E0824F66E000E0920F76E000E82
:100F78000A20F86E0900F5CF01F00150040A1BE1C0
:100F8800080E0824F66E000E0920F76E000E0A20DF
:100F9800F86E0900F5CF01F00150BE5D0CE2080EB5
:100FA8000824F66E000E0920F76E000E0A20F86E6F
:100FB8000900F5CFBEF008C0F6FF09C0F7FF0AC068
:100FC800F8FF0900F5CF00F00050BF25016E000EB4
:100FD800C021026E01C0BFF002C0C0F00750025C21
:100FE80002E10650015C01E30FD008C0F6FF09C01A
:100FF800F7FF0AC0F8FF0900F5CF00F000500826F7
:0E100800000E09220A2283D7BEC000F012009B
:0A101600D08EA28AA08AF28E12008A
:10102000B80E006E1E0E016E000E026E0E0E002433
:10103000F66E000E0120F76E000E0220F86E090019
:10104000F5CF03F003C004F00F0E0024F66E000E7F
:101050000120F76E000E0220F86E0900F5CF01F0B6
:101060000150035C12E2B80E006E1E0E016E000EFF
:10107000026E0F0E0024F66E000E0120F76E000EB9
:101080000220F86E0900F5CF04F0B80E006E1E0EB7
:10109000016E000E026E100E0024F66E000E01208E
:1010A000F76E000E0220F86E0900F5CF01F0015036
:1010B000045C12E2B80E006E1E0E016E000E026E8F
:1010C000100E0024F66E000E0120F76E000E0220B6
:0E10D000F86E0900F5CF04F004C000F0120025
:1010DE00000E0001BC1902E1000EBB1902E1016A0B
:1010EE000AD0BBC0E9FFBCC0EAFFEECF00F0000E95
:0C10FE0000BE010E016E01C000F01200E7
:10110A005450000A0AE16D6A696AA5EC03F06DB6EB
:10111A0002D06D86FCD7010E546E5450010A08E1C4
:10112A006DBA06D0686A696A69806988020E546E67
:10113A0068A405D069A403D0FB0E68166EDD6DA203
:10114A0002D048DDD5D068A018D069A016D098DDA5
:10115A00040E546E200E0401026F040E036F080E73
:10116A00016F000E0015006E00C000F48C0E001115
:10117A00006E00C000F4FE0E681668A805D069A8C3
:10118A0003D0BDDDEF0E681668AC04D069AC02D09E
:10119A00BF0E681668AA03D069AA01D01DDD68A22D
:1011AA0002D069B26A6A040E545C02E213DDA0D06E
:1011BA0069A69DD00001BC6B040EBC5DD8B097D067
:1011CA0068A691D06CCF60F0F70E6816780E60159D
:1011DA00016E0150000AD8A485D0FD0E6015016E7B
:1011EA00026AFF0E0216000E021802E1000E011832
:1011FA006BE17E0E6015016E01C003F00332039E9F
:10120A0003C000F0000E016E003600900136003671
:10121A0000900136000E0024026E040E0120036EB7
:10122A0002C03DF003C03EF002C03FF003C040F0F0
:10123A00040E3F18006E00C03FF002C0E9FF03C071
:10124A00EAFFEECF00F000C001F03C0E01160132B9
:10125A00019E0132019E01500D0A34E1020E3D2425
:10126A00E96E000E3E20EA6EEECF01F0EECF02F0FC
:10127A000250040A02E1280E011822E1020E3D245E
:10128A00E16E000E3E20E26E200EE66E040EE66E61
:10129A00BB6B080EBB5D14E2200EE16E040EE26E1B
:1012AA00BB51E126D8B0E22A280EE96E040EEA6E96
:1012BA00BB51E926D8B0EA2AEECFE6FFBB2BE9D725
:1012CA0023DD01D0B9DC0DD0FD0E6015016E026A76
:1012DA00FF0E0216000E021802E1040E011801E1C7
:1012EA0026DC00D001D003D00001BC2B65D772DC0C
:0212FA001200E0
:1012FC00C7B409D01F0EC514016E0150000A03E1DA
:0A130C00010E006E01D0006A12000D
:10131600F250026EF29E0500FF6A0150FE6E00500A
:08132600FD6E02BEF28E120002
:10132E005450000A0BE16D6A696AA5EC03F06CDE9D
:0E133E006DB602D06D86FCD7010E546E120003
:04134C00C584120042
:10135000200E545C03E36DB201D002D0006A4ED07F
:1013600089C0BBF08AC0BCF0BADE005246E1B8C00A
:10137000BBF0010EBC6FB5C0BDF0B6C0BEF0B7C0CB
:10138000BFF0DDDC00C089F001C08AF0906B916B8A
:10139000926B936B89C0BBF08AC0BCF0A0DE005298
:1013A00017E0200E545C03E36DB201D002D0006A56
:1013B00025D0010E016E0150000A01E1A6DE0001F8
:1013C000905191119211931102E0006A17D0E2D767
:1013D00089C0B9F08AC0BAF0000E8A1902E1000E85
:1013E000891909E0010EB925E96E000EBA21EA6EED
:0E13F000EECF00F003D0006A01D0006A1200B8
:1013FE0029C0B7F02AC0B8F02BC0B9F02CC0BAF093
:10140E000001B56BB66BB651120802E1B5518E08EC
:10141E0008E36DDF005201E004D00001B54BB62B9E
:10142E00F2D70001120EB65D02E18F0EB55D03E339
:10143E007B0E006E24D0C580C5A020D029502A1066
:10144E002B102C101AE0B751B811B911BA110EE1C8
:10145E0034C0E1FF35C0E2FF050EE66E32C000F08B
:10146E0033C001F051DF010E006E09D0010E0001F4
:10147E00B75F000EB85BB95BBA5BDED7006A1200CD
:10148E00FC0E0001756F120E766F000E776F000E58
:10149E00786FFE0E6D6F130E6E6F000E6F6F000E77
:1014AE00706FFF0E716FFF0E726F000E736F000E76
:1014BE00746F060E816F150E826FB50E836F000E60
:1014CE00846F9C0E856F160E866FB50E876F000E9D
:1014DE00886F4C0E796F130E7A6F000E7B6F000EB5
:1014EE007C6F939093928A908A9293809382C79EF8
:0814FE00C79C380EC66E1200F7
:1015060029C0B7F02AC0B8F02BC0B9F02CC0BAF089
:101516009E96C5869EB61FD029502A102B102C10D9
:1015260019E00001B751B811B911BA110CE134C074
:10153600E1FF35C0E2FF030EE66E32C000F033C0B5
:1015460001F0E6DE08D0010E0001B75F000EB85BC1
:10155600B95BBA5BDFD70001C9CFB6F0B551000A57
:1015660002E1C58A01D0C59A9E96C58829C0B7F002
:101576002AC0B8F02BC0B9F02CC0BAF09EB61FD066
:1015860029502A102B102C1019E00001B751B81160
:10159600B911BA110CE134C0E1FF35C0E2FF030E08
:1015A600E66E32C000F033C001F0B2DE08D0010EA4
:1015B6000001B75F000EB85BB95BBA5BDFD7B6C098
:0415C60000F012001F
:0C15CA003A0E0D6E0D2EFED70000120030
:1015D6000450000A08E10550000A05E1FF0E006EFE
:1015E6007F0E016E57D00D6A096A086A0150001015
:1015F600D8B4000C015005180A6E0ABE0D1E0B6AFF
:1016060005AE05D0041E051E042AD8B4052A01AE6F
:1016160005D0001E011E002AD8B4012A015005106B
:101626000A6E0ABE10D019DC0BB020D00DAE000C2D
:10163600001E011E002AD8B4012A081E091E082A07
:10164600D8B4092A000C05AE0DD001BE07D0015052
:10165600096E0050086E016A006AE8D7016A006ADE
:10166600002A000C011E001E0B2ADDD7082AD8B45A
:10167600092A0450085CD8A4D9D70550095CD8A417
:10168600D5D7096A086A002AD8B4012A01AECED78E
:061696000000FF0C120031
:10169C009E96B5C0C9FF29C0B6F02AC0B7F02BC0C2
:1016AC00B8F02CC0B9F0C7A421D029502A102B10A7
:1016BC002C101BE00001B651B711B811B9110EE195
:1016CC0034C0E1FF35C0E2FF040EE66E32C000F01C
:1016DC0033C001F01ADE010E006E3AD0010E00018B
:1016EC00B65F000EB75BB85BB95BDDD729C0B6F04F
:1016FC002AC0B7F02BC0B8F02CC0B9F09EB621D0E0
:10170C0029502A102B102C101BE00001B651B711D8
:10171C00B811B9110EE134C0E1FF35C0E2FF040E7F
:10172C00E66E32C000F033C001F0EFDD010E006E4A
:10173C000FD0010E0001B65F000EB75BB85BB95B52
:10174C00DDD7C5BC02D0006A03D0C584020E006E82
:02175C00120079
:10175E0060DC00C0B5F0570E0001BB6F1E0EBC6FF3
:10176E00000EBD6F5CEC07F000C0B6F0B551005C2A
:0E177E0003E2B5C000F002D0B6C000F01200C9
:10178C00E8DF00C02FF0010E8B6FAFC05EF0B0C071
:10179C005FF0B1C08EF0B2C08FF045EC06F0010ED8
:0C17AC00016E0150010A01E1BCDD1200D9
:1017B8000900F5CFE6FF0006FBE10106F9E112009A
:1017C8005450010A07E16DBA05D0686A69806988D2
:1017D800020E546E68A406D069A404D0FB0E6816E5
:1017E80012EC06F06DA203D0EFEC05F0DDD068A096
:1017F80019D069A017D045EC06F0040E546E200EDF
:101808000401026F040E036F080E016F000E00152D
:10181800006E00C000F48C0E0011006E00C000F4D1
:10182800FE0E681668A806D069A804D084EC06F0F5
:10183800EF0E681668AC04D069AC02D0BF0E68160B
:1018480068AA04D069AA02D0F1EC05F068A202D017
:1018580069B26A6A040E545C03E2EFEC05F0A4D0A6
:1018680069A6A0D00001C36B040EC35DD8B09AD09E
:1018780068A694D06CCF60F0F70E6816780E6015E5
:10188800016E0150000AD8A488D0FD0E6015016EC3
:10189800026AFF0E0216000E021802E1000E01187D
:1018A8006DE17E0E6015016E01C003F00332039EE8
:1018B80003C000F0000E016E0036009001360036BD
:1018C80000900136000E0024026E040E0120036E03
:1018D80002C03DF003C03EF002C03FF003C040F03C
:1018E800040E3F18006E00C03FF002C0E9FF03C0BD
:1018F800EAFFEECF00F000C001F03C0E0116013205
:10190800019E0132019E01500D0A35E1020E3D246F
:10191800E96E000E3E20EA6EEECF01F0EECF02F047
:101928000250040A02E1280E011822E1020E3D24A9
:10193800E16E000E3E20E26E200EE66E040EE66EAC
:10194800C26B080EC25D14E2200EE16E040EE26E58
:10195800C251E126D8B0E22A280EE96E040EEA6EDA
:10196800C251E926D8B0EA2AEECFE6FFC22BE9D762
:1019780089EC06F002D021EC06F00ED0FD0E6015C1
:10198800016E026AFF0E0216000E021802E1040E32
:10199800011802E19CEC05F000D001D003D0000151
:0A19A800C32B62D7EFEC05F012002C
:1019B200C26A2D1C006E0050C116070EC012C08EE6
:1019C200AFC000F000360090003600900050C21206
:1019D200C280FADDC282C2A201D0FDD7C4CF01F01B
:0E19E200006AC3500012000E0112C2901200E3
:1019F000340E0001656F0C0E666FC10E676F000E2E
:101A0000686FFF0E566EFF0E576E000E586E000E7A
:101A1000596EFF0E5A6EFF0E5B6E000E5C6E000E6E
:101A20005D6EFF0E616FFF0E626F000E636F000E42
:101A3000646FAC8A900EAB6E948E949C9EAA03D079
:081A4000AECF00F0FBD712004D
:101A4800AFC0B5F0B0C0B6F0B1C0B7F0010E00013C
:061A5800B86F7ADC1200F9
:101A5E00CFDCD00E0001B56F1ADE3B0E0001B56F64
:101A6E0016DEC6DCD10E0001B56F11DEAFC0B3F0CD
:101A7E00B0C0B4F0010E0001B56F3EDD00C0B2F093
:101A8E000001B16B010EB56F37DD000E016E000166
:101A9E00B1510012B2510112B3C0E1FFB4C0E2FF66
:101AAE0000C0E6FF01C0E6FF020EAF25B36F000EC9
:101ABE00B021B46F010EB56F1FDD00C0B2F0000192
:101ACE00B16B010EB56F18DD000E016E0001B15144
:101ADE000012B2510112B3C0E1FFB4C0E2FF00C068
:101AEE00E6FF01C0E6FF040EAF25B36F000EB02176
:101AFE00B46F010EB56F00DD00C0B2F00001B16B26
:101B0E00010EB56FF9DC000E016E0001B15100122D
:101B1E00B2510112B3C0E1FFB4C0E2FF00C0E6FF54
:101B2E0001C0E6FF060EAF25B36F000EB021B46FF5
:101B3E00010EB56FE1DC00C0B2F00001B16B010E19
:101B4E00B56FDADC000E016E0001B1510012B25118
:101B5E000112B3C0E1FFB4C0E2FF00C0E6FF01C056
:101B6E00E6FF080EAF25006E000EB021016E00C01C
:101B7E00B3F001C0B4F0010EB56FBEDC00C0B2F020
:101B8E000001B16B010EB56FB7DC000E016E0001E6
:101B9E00B1510012B2510112B3C0E1FFB4C0E2FF65
:101BAE0000C0E6FF01C0E6FF080EAF25006E000E76
:101BBE00B021016E020E0024B36F000E0120B46F2F
:101BCE00010EB56F99DC00C0B2F00001B16B010ED1
:101BDE00B56F92DC000E016E0001B1510012B251D0
:101BEE000112B3C0E1FFB4C0E2FF00C0E6FF01C0C6
:101BFE00E6FF080EAF25006E000EB021016E040E3A
:101C0E000024B36F000E0120B46F010EB56F74DCAB
:101C1E0000C0B2F00001B16BB56B6EDC000E016E50
:101C2E000001B1510012B2510112B3C0E1FFB4C0B4
:101C3E00E2FF00C0E6FF01C0E6FFA6EC09F0060ECB
:101C4E00AF25026E000EB021036E02C0E9FF03C085
:101C5E00EAFF850EEE24006E300EEE20016E02C0FD
:101C6E00E1FF03C0E2FF00C0E6FF01C0E6FF060E83
:101C7E00AF25B16F000EB021B26FB1C0E9FFB2C097
:101C8E00EAFFEECF00F0EECF01F0540E046E010E1F
:101C9E00056E9ADCB1C0E1FFB2C0E2FF00C0E6FF04
:061CAE0001C0E6FF120078
:101CB400140EC86E47EC0AF0FFEC09F0D00E0001D8
:101CC400B56FEADC6B0E0001B56FE6DC020E0001B5
:101CD400B56FE2DC0001B56BDFDCA6EC09F0FFECCC
:101CE40009F0D00E0001B56FD7DC1B0E0001B56FF3
:101CF400D3DC0001B56BD0DC0001B56BCDDCA6EC08
:041D040009F01200D0
:101D08006AEC0FF0FC0ED36E816AFF0E936E000E24
:101D18000001AF6F050EB06F400EB16F050EB26FC8
:101D280031DDB886030EB06E400EAF6EAC845CDE5B
:101D3800BDDF970E0001AF6F000EB06F8CDE016A39
:101D480081B4012A01C003F00336039003360390DF
:101D5800026A81B6022A02C000F0003600900036FE
:101D680000900036009000500324026E02C03BF041
:101D780002C000F000360090003600900036009057
:101D88000036009000C03BF0040E00103C6E070EB9
:101D9800026E97C000F098C001F0025007E00132CF
:101DA8000032019E01BC018EFF0FF8D700C039F048
:101DB800010E0001AF6FF9DD00C002F001C003F0B1
:101DC80003320232039E03320232039E800E025C0B
:101DD800006E00C03AF0800E0501406F39C041F531
:101DE80000C042F53CC043F5400E0001AF6F050E40
:101DF800B06F040EB16F24DE005201E1F5D799D718
:021E0800FFD702
:101ED40010EE29F0050E006E010E016ECA0EF66EAC
:0E1EE4001E0EF76E000EF86EDCEC0BF0120016
:101E0A00050115000904A101050209BB1581257FF9
:101E1A0075089501810205010901A10009300931FE
:101E2A0095028102C00939150025033500460E01C5
:101E3A006514750495018102050919012904150023
:0D1E4A00250175019504550065008102C059
:101E57000902290001010080320904000002030081
:101E67000000092101010001224D000705810340FF
:091E770000010705010340000110
:101E8000200355005300420020004D0061006E0009
:101E90006900700075006C00610074006F007200D2
:101EA000160345006D0069006C00200045006E00BF
:081EB000630068006500760084
:101EB80012010002000000083412010001000102B2
:021EC800000117
:041ECA000000000014
:011ECE0030E3
:041ECF0004030904FB
:020000040030CA
:0E0000002D0E3E1EFF8181FF0FC00FE00F404E
:00000001FF
